:100000000C94E7050C940F060C940F060C940F0645
:100010000C940F060C940F060C940F060C940F060C
:100020000C940F060C940F060C94D5070C944708FB
:100030000C940F060C940F060C940F060C940F06EC
:100040000C940F060C940F060C940F060C940F06DC
:100050000C940F060C940F060C940F060C94360BA0
:100060000C940F060C940F060C940F060C940F06BC
:100070000C940F060C940F060C940F060C940F06AC
:100080000C942E0C0C940F060C940F060C940F0677
:100090000C940F060C940F060C940F060C940F068C
:1000A0000C940F060C940F060C940F060000000031
:1000B000003E5B4F5B3E3E6B4F6B3E1C3E7C3E1CEE
:1000C000183C7E3C181C577D571C1C5E7F5E1C0034
:1000D000183C1800FFE7C3E7FF0018241800FFE7EB
:1000E000DBE7FF30483A060E2629792926407F05AE
:1000F0000507407F05253F5A3CE73C5A7F3E1C1CC4
:1001000008081C1C3E7F14227F22145F5F005F5F83
:1001100006097F017F006689956A6060606060946F
:10012000A2FFA29408047E040810207E2010080874
:100130002A1C08081C2A08081E101010100C1E0C7F
:100140001E0C30383E3830060E3E0E060000000011
:100150000000005F00000007000700147F147F14F8
:10016000242A7F2A1223130864623649562050003D
:1001700008070300001C2241000041221C002A1C29
:100180007F1C2A08083E0808008070300008080814
:100190000808000060600020100804023E51494534
:1001A0003E00427F400072494949462141494D3352
:1001B0001814127F1027454545393C4A49493141B9
:1001C000211109073649494936464949291E000087
:1001D00014000000403400000008142241141414DC
:1001E0001414004122140802015909063E415D59C8
:1001F0004E7C1211127C7F494949363E41414122D1
:100200007F4141413E7F494949417F090909013EFA
:10021000414151737F0808087F00417F4100204021
:10022000413F017F081422417F404040407F021C33
:10023000027F7F0408107F3E4141413E7F0909094A
:10024000063E4151215E7F09192946264949493216
:1002500003017F01033F4040403F1F2040201F3FDC
:100260004038403F63140814630304780403615961
:10027000494D43007F4141410204081020004141A3
:10028000417F04020102044040404040000307084F
:100290000020545478407F2844443838444444284B
:1002A000384444287F385454541800087E090218F2
:1002B000A4A49C787F0804047800447D400020407A
:1002C000403D007F1028440000417F40007C0478BE
:1002D00004787C080404783844444438FC18242406
:1002E0001818242418FC7C08040408485454542486
:1002F00004043F44243C4040207C1C2040201C3C03
:100300004030403C44281028444C9090907C4464F9
:10031000544C44000836410000007700000041368C
:10032000080002010204023C2623263C1EA1A16112
:10033000123A4040207A3854545559215555794144
:100340002154547841215554784020545579400C1B
:100350001E527212395555555939545454593955FC
:100360005454580000457C410002457D420001453F
:100370007C40F0292429F0F0282528F07C545545AC
:10038000002054547C547C0A097F4932494949323F
:100390003248484832324A4848303A4141217A3A54
:1003A00042402078009DA0A07D39444444393D401E
:1003B00040403D3C24FF2424487E4943662B2FFCCB
:1003C0002F2BFF0929F620C0887E09032054547979
:1003D000410000447D413048484A32384040227A4A
:1003E000007A0A0A727D0D19317D2629292F2826C7
:1003F0002929292630484D402038080808080808CF
:100400000808382F10C8ACBA2F102834FA00007B27
:10041000000008142A142222142A1408950022002D
:1004200095AA005500AAAA55AA55AA000000FF00E7
:10043000101010FF00141414FF001010FF00FF1024
:1004400010F010F0141414FC001414F700FF000056
:10045000FF00FF1414F404FC141417101F10101FD5
:10046000101F1414141F00101010F0000000001FC3
:10047000101010101F10101010F010000000FF10CE
:100480001010101010101010FF10000000FF1400CA
:1004900000FF00FF00001F10170000FC04F41414FC
:1004A0001710171414F404F40000FF00F7141414C8
:1004B00014141414F700F7141414171410101F1048
:1004C0001F141414F4141010F010F000001F101F6B
:1004D0000000001F14000000FC140000F010F010D9
:1004E00010FF10FF141414FF141010101F00000050
:1004F00000F010FFFFFFFFFFF0F0F0F0F0FFFFFF54
:100500000000000000FFFF0F0F0F0F0F38444438AA
:10051000447C2A2A3E147E02020606027E027E02E5
:1005200063554941633844443C04407E201E200604
:10053000027E020299A5E7A5991C2A492A1C4C7241
:1005400001724C304A4D4D303048784830BC625AC8
:10055000463D3E494949007E0101017E2A2A2A2A58
:100560002A44445F444440514A444040444A514034
:100570000000FF0103E080FF000008086B6B0836F5
:1005800012362436060F090F060000181800000066
:100590001010003040FF0101001F01011E00191D55
:1005A0001712003C3C3C3C00000000000102040823
:1005B00010204080080B0002020201000904000024
:1005C00001020200000524001001052401010104BC
:1005D00024020605240600010705810310004009D6
:1005E000040100020A0000000705020240000007A3
:1005F0000583024000000403090412010002EF0217
:1006000001404123368000010102030141726475FB
:10061000696E6F204C4C430041726475696E6F20A7
:100620004C656F6E6172646F00D5F08D14A1C88146
:10063000CFD9F1AF200038488808040201C1010178
:10064000010204382020107040C00000000000FFAC
:10065000FFFFC7C7C7FFFFFF000000FFFFFFC0C0CD
:10066000C0FFFFFF000000FFFFFF07070787878726
:10067000878787000000FFFFFFC7C7C7FFFFFF0096
:100680000000FFFFFFC7C7C7C7C7C7000000FFFFC5
:10069000FF073F3FF8C0F83F3F07FFFFFF000000A4
:1006A000010D7A82008080008080402010080804BC
:1006B000030000000000FFFFFF0101010101010034
:1006C0000000010101FFFFFF010101000000FFFF29
:1006D000FFC0C0C0C3C3C3FFFFFF000000FFFFFF98
:1006E000010101FFFFFF000000C1C1C1C1C1C1FF85
:1006F000FFFF000000FFFFFF0000000101010000FC
:1007000000FFFFFF000000000000010100010100E8
:1007100000000000000000000000000000010101D6
:1007200000000000000000000000000001010100C6
:1007300000000000000101010101010101010101AE
:1007400001000000010101000000010101000000A2
:10075000010101010101010101000000010101008D
:10076000000000000000000001010157696E7321C4
:1007700000200043726F73736573004472617721C8
:10078000004E6F7567687473005000FF010101012E
:100790000101010101010101010101FFFF00000050
:1007A000000000000000000000000000FF01010147
:1007B0000101010101010101010101010101030325
:1007C0000C0CB0F0E0F0B00C0C0303181806060196
:1007D0000100010106061818FCFC030303030303D0
:1007E000030303FCFC070718181818181818181822
:1007F00007070000000000000000000000000000EB
:100800000000000000FFFF000000000000000000EA
:1008100000000000000000000000FFFF00000000DA
:1008200000000000000000000000000000000000C8
:1008300000000000000000000000000000000000B8
:100840000000FFFF000000000000000000000000AA
:1008500000000000000000FFFF000000000000009A
:100860000000000000000000000000001818181828
:10087000181818181818181818181818181818FF11
:10088000FF18181818181818181818181818181801
:1008900018181818FFFF181818181818181818180A
:1008A0001818181818181818180000000000000070
:1008B000000000000000000000000000FFFF00003A
:1008C0000000000000000000000000000000000028
:1008D00000FFFF000000000000000000000000001A
:1008E0000000000000000000000000000000000008
:1008F000000000000000000000FFFF0000000000FA
:100900000000000000000000000000000000FFFFE9
:1009100000000000000000000000000000000000D7
:1009200000000003030303030303030303030303A0
:10093000030303030303FFFF03030303030303038F
:100940000303030303030303030303FFFF0303037F
:100950000303030303030303030303030303030367
:100960000000000000000000000000000000000087
:10097000000000FFFF000000000000000000000079
:100980000000000000000000FFFF00000000000069
:100990000000000000000000000000000000000057
:1009A0000000000000000000000000000000000047
:1009B0001F1F0000000000000000000000000000F9
:1009C00000000000001F1F000000000000000000E9
:1009D000000000000000000000004120546F205380
:1009E0007461727400FEFFFF070707FFFFFE00003F
:1009F00000FEFFFF070707FFFFFE000000FEFFFEEF
:100A0000000000FEFFFE000000FEFFFF070747E7B3
:100A1000E7C2000000FEFFFE707070FEFFFE0000E7
:100A200000020707FFFFFF0707020000003E7F7F6D
:100A3000777777F7F7E2070F07000000070F070047
:100A40000000070F0F0E0E0E0F0F07000000070F1C
:100A50000F0E0E0E0F0F07000000078F8F8E8E8E69
:100A60008F8F07000000070F07000000070F070027
:100A70000000000000070F07000000000000040E47
:100A80000E0E0E0E0F0F0700000000000000000009
:100A90000000000000000000000000000000000056
:100AA0000000000000000000000000FFFFFF030343
:100AB00003FFFFFF00000000000000000000000036
:100AC0000000000000000000000000000000000026
:100AD000000000000000000080C0C0C0C0C0C0C056
:100AE0008000000080C0C0C0C0C0C0C08000000046
:100AF00080C0C0C0C0C0C0C08000000083C7C3C0E9
:100B0000C0C0C3C78300000080C0C0C0C0C0C0C098
:100B10008000000080C0C0C0C0C0C0C08000000015
:100B200080C0C0C0C0C0C0C080FFFFFF8181818184
:100B30008100000000FFFFFF0101010F1F0F0000F7
:100B400000FFFFFF818181FFFFFF0000000F9F9FDB
:100B50009D9D9DFDFDF80000000F9F9F9D9D9DFDAB
:100B6000FDF8000000FFFFFF9D9D9D9D8900000096
:100B7000000F9F9F9D9D9DFDFDF80103030303034F
:100B80000303010000000103030000000000000057
:100B9000000001030303030303030100000001033A
:100BA0000303030303030100000001030303030322
:100BB0000303010000000103030303030303010017
:100BC0000000010303030303030301000C151124B8
:100BD0001FBECFEFDAE0DEBFCDBF11E0A0E0B1E095
:100BE000E4EDFCE202C005900D92A234B107D9F702
:100BF00026E0A2E4B1E001C01D92A036B207E1F701
:100C000015E0C7EED5E004C02197FE010E946216F0
:100C1000C63ED107C9F70E947E100C9468160C944A
:100C200000004091520150915301209150013091A8
:100C3000510142175307B4F49091E8009570E1F325
:100C40009091E80092FD19C08093F10080915201CB
:100C50009091530101968F739927892B19F48EEF88
:100C60008093E800809152019091530101969093F6
:100C700053018093520181E0089580E00895CF925E
:100C8000DF92EF92FF920F931F93CF93DF931F9208
:100C9000CDB7DEB7182F062FE42E862F880F8E5F74
:100CA00099830E94110683E00E941106F12EC12E45
:100CB0009981D92E8C2D8F19801798F4F601E7FEB3
:100CC00002C0849101C080810E941106182F80E02B
:100CD0000E9411068123FFEFCF1ADF0A8111EACFAC
:100CE00001C081E00F90DF91CF911F910F91FF9094
:100CF000EF90DF90CF900895DF92EF92FF920F93E5
:100D00001F93CF93DF93D82E8A017B01E40EF51E4B
:100D1000EB01CE15DF0571F0D7FE03C0FE01849113
:100D200001C088810E94110621968111F2CF8FEFB8
:100D30009FEF01C0C801DF91CF911F910F91FF90EC
:100D4000EF90DF900895615030F02091F100FC01A8
:100D500020830196F8CF289884E680935D0108955A
:100D6000CF92DF92EF92FF920F931F93CF93DF9377
:100D70006C017A018B01C0E0D0E0CE15DF0589F06F
:100D8000D8016D918D01D601ED91FC910190F0811A
:100D9000E02DC6010995892B11F47E0102C0219630
:100DA000ECCFC701DF91CF911F910F91FF90EF9092
:100DB000DF90CF900895CF93DF931F92CDB7DEB72A
:100DC0006983DC01ED91FC910280F381E02D41E02B
:100DD00050E0BE016F5F7F4F09950F90DF91CF917B
:100DE000089583E08093E9008091F200882319F050
:100DF0008AE38093E8000895FC018485958597FD3A
:100E00000BC09FB7F89482E08093E9008091F200D4
:100E10009FBF90E0019608959FB7F89482E0809379
:100E2000E9008091F2009FBF90E008953FB7F894E9
:100E300080914C0190914D01A0914E01B0914F01D4
:100E400026B5A89B05C02F3F19F00196A11DB11D25
:100E50003FBFBA2FA92F982F8827820F911DA11D60
:100E6000B11DBC01CD0142E0660F771F881F991F9D
:100E70004A95D1F7089580916301E0916101F09165
:100E80006201882349F0CF0102969093620180931A
:100E90006101859194910895CF010296909362012A
:100EA0008093610180819181089580915801089516
:100EB0000895089580E090E008950F931F93CF93D5
:100EC000DF931F92CDB7DEB782E0898342E450E022
:100ED00064EB75E080E80E947C060E942610DC012D
:100EE00012960D911C9113970115110569F0D80107
:100EF000ED91FC910280F381E02DBE016F5F7F4F89
:100F0000C801099597FF07C089810F90DF91CF91A4
:100F10001F910F910895F80100851185E5CF0E947A
:100F2000020F90E00895CF93DF931F92CDB7DEB705
:100F3000FC018485958597FD05C02FEF3FEF358730
:100F400024870BC0CE0101960E94FC0F019719F473
:100F5000898190E002C08FEF9FEF0F90DF91CF91DA
:100F600008950F931F93CF93DF931F92CDB7DEB7F2
:100F70008C01FC018485958597FF0EC0CE010196FA
:100F80000E94FC0F019719F4298130E002C02FEF75
:100F90003FEFF80135872487F801848595850F9008
:100FA000DF91CF911F910F9108951F920F920FB66D
:100FB0000F9211248F939F938091E1009091E10013
:100FC000937F9093E10083FF0FC01092E90091E0BE
:100FD0009093EB001092EC0092E39093ED0010924E
:100FE0005E0198E09093F00082FF20C093E0909320
:100FF000E9009091F200992319F09AE39093E800A8
:1010000090915401992339F090915401915090930B
:101010005401992389F190915D01992339F09091C0
:101020005D01915090935D01992341F184FF10C0BF
:101030008091E2008E7E81608093E2008091E100E9
:101040008F7E8093E100809156018E7E806111C079
:1010500080FF16C08091E2008E7E80618093E20066
:101060008091E1008E7E8093E100809156018E7E1A
:1010700081608093560104C05D9ACDCF289AD6CF67
:101080009F918F910F900FBE0F901F9018951F92F8
:101090000F920FB60F921124CF92DF92EF92FF9230
:1010A0000F931F932F933F934F935F936F937F9370
:1010B0008F939F93AF93BF93EF93FF93CF93DF9360
:1010C000CDB7DEB76C97DEBFCDBF1092E90080913F
:1010D000E80083FFEDC168E0CE0145960E94A306BB
:1010E00082EF8093E8008D8987FF05C09091E8002A
:1010F00090FFFCCF03C09EEF9093E800982F90766E
:1011000009F0C6C09E892F89188D91110CC08038B6
:1011100029F4809157018093F10002C01092F100F0
:101120001092F10048C1422F50E0512B913051F400
:10113000811141C14130510509F03DC180915701F4
:101140008D7F0BC0933061F4811135C14130510561
:1011500009F031C1809157018260809357012BC102
:10116000953041F48091E80080FFFCCF2068209307
:10117000E30021C1963009F05FC0EB8CFC8C10922B
:10118000E9001092530110925201123091F5109221
:101190005101109250010E945D0799E0BE016F5FFE
:1011A0007F4FDB01E92F1D92EA95E9F799831A83B6
:1011B00091E09E8390EA98879AEF99872091520157
:1011C00030915301275F3F4F3C832B838D831092D7
:1011D000E9001092530110925201F0925101E092F5
:1011E000500149E050E080E00E947C060E945D07CB
:1011F000E2C0F0925101E09250010E942610DC0101
:101200001296ED90FC901397E114F10409F4C0C01C
:10121000D701ED91FC910480F581E02DBE016B5E5C
:101220007F4FC7010995009719F00CF0C4C0C7C0E3
:10123000F701E084F184E8CF973009F4C0C098301A
:1012400021F481E08093F100B6C0993009F0B3C079
:10125000837009F0B4C0EDE0F1E081E021E036E315
:101260009081992361F08093E9002093EB009191A4
:101270009093EC003093ED008F5F873089F78EE715
:101280008093EA001092EA008F8980935E0193C0F8
:101290008B8D9C8D1092E900109253011092520197
:1012A0009093510180935001898D811156C08E8990
:1012B0009D89913A59F4813209F081C047E050E0AC
:1012C00064E071E080E00E947C0675C0913209F014
:1012D00076C0833289F4888D90E0982F88272F89F3
:1012E000822BA0E0B0E08093000190930101A093D5
:1012F0000201B09303015FC0803269F48091E8007D
:1013000082FFFCCF67E084E091E00E94A3068BEFB0
:101310008093E80006C0823209F04DC08F89809327
:101320000B0180915501882319F0EEEFFAE002C01D
:10133000E0E0F8E08091040190910501A0910601A0
:10134000B0910701803B9440A105B10509F07BC035
:1013500080910B0180FF93C076C00E942610DC01B3
:1013600012960D911C9113970115110541F1D801A9
:10137000ED91FC910190F081E02DBE016B5E7F4FFD
:10138000C8010995811117C0F80100851185ECCFBE
:10139000113009F44EC0133091F48F89882309F479
:1013A00045C0823081F440E860E188E196E00E9427
:1013B0003F06882321F08EEF8093E80079C081E218
:1013C0008093EB0075C0813029F440E86BE08CE03D
:1013D00096E0EDCF833099F70E942610DC0112963B
:1013E000ED90FC9013978E010F5F1F4F6801E11481
:1013F000F10479F0D701ED91FC910680F781E02DA1
:10140000B801C7010995080F111DF701E084F184A7
:10141000EECFD8011C92F60101900020E9F7319738
:10142000BF016C197D0940E0C601C1CF66EF75E0D0
:1014300002C06AEF75E06115710509F2FB01449184
:1014400050E080E840CF0FB6F894A89580916000F6
:10145000886180936000109260000FBEA895EE3FF7
:101460002AE0F20739F08091FE0A9091FF0A9183F9
:101470008083A1CF1092FF0A1092FE0A9CCFEE3F0C
:101480008AE0F80731F0808191819093FF0A809380
:10149000FE0A87E797E7918380839BE088E10FB698
:1014A000F894A895809360000FBE9093600083CF5E
:1014B0006C960FB6F894DEBF0FBECDBFDF91CF9113
:1014C000FF91EF91BF91AF919F918F917F916F911C
:1014D0005F914F913F912F911F910F91FF90EF904E
:1014E000DF90CF900F900FBE0F901F9018958F92A6
:1014F0009F92AF92BF92CF92DF92EF92FF926B01D9
:101500007C010E9416074B015C01C114D104E10467
:10151000F104F1F00E941607DC01CB01881999094A
:10152000AA09BB09883E9340A105B10570F321E0EB
:10153000C21AD108E108F10888EE880E83E0981EEF
:10154000A11CB11CC114D104E104F10419F7DDCFD1
:10155000FF90EF90DF90CF90BF90AF909F908F90D3
:1015600008958F929F92AF92BF92CF92DF92EF92A7
:10157000FF920F931F93CF93DF935C016B017A016E
:1015800080910B01882309F45BC080915E01882360
:1015900009F456C08091560180FF05C08091E0009B
:1015A00082608093E000E70110E00AEF83E0882E7C
:1015B0009AE3992E2097D9F10E94020F81110AC057
:1015C000015009F43DC061E070E080E090E00E94CD
:1015D000770AF0CF282F30E0C217D3070CF48C2FF6
:1015E0004FB7F8948092E9009091E80095FF1DC0F4
:1015F000282F30E0C21BD30BF601982F915020F01A
:1016000081918093F100FACFC20ED31E112319F0FD
:101610009092E80009C08091E80085FD06C0909294
:10162000E80011E0209709F010E04FBFC3CF11117F
:10163000C3CF5D9884E6809354011E141F0444F0C8
:1016400081E090E0F5019383828380E090E001C027
:10165000C701DF91CF911F910F91FF90EF90DF9025
:10166000CF90BF90AF909F908F9008951F920F9250
:101670000FB60F9211242F933F938F939F93AF93A5
:10168000BF938091590190915A01A0915B01B09153
:101690005C0130914B0123E0230F2D3720F401969C
:1016A000A11DB11D05C026E8230F0296A11DB11D85
:1016B00020934B018093590190935A01A0935B01B1
:1016C000B0935C0180914C0190914D01A0914E012D
:1016D000B0914F010196A11DB11D80934C019093D3
:1016E0004D01A0934E01B0934F01BF91AF919F91D7
:1016F0008F913F912F910F900FBE0F901F901895D3
:10170000CF92DF92EF92FF920F931F93CF93DF93CD
:101710000E943B07811520E8920761F480917100D7
:101720008D7F809371001092910046984798109297
:1017300044018BC021E020934401813020E89207CE
:1017400051F480915F0190916001909362018093C8
:1017500061010E943B0797FD05C0209143012223B0
:1017600009F43FC02091420121113BC021E02093A8
:101770004501EC01DF77209769F481E08093460111
:1017800046983FE9C32E3FE0D32EE12CF12CCAEF5F
:10179000D0E014C08E0120E030E060E472E48FE01D
:1017A00090E0A90198010E94121669017A0181E076
:1017B000C81AD108E108F10810924601E091C2056B
:1017C000F091C3050995811103C081E08093460122
:1017D000809145018823B9F180914601811133C080
:1017E00003C010924501C5CF46992DC0479A0E946B
:1017F0003B07009771F09C01DE010E945316DC014B
:10180000CB0129E0B595A795979587952A95D1F7AE
:1018100003C08FEF9FEFDC01109290002AE020932D
:101820009100D0929900C0929800809347019093C4
:101830004801A0934901B0934A01809171008260F0
:101840008093710002C04798D2CFDF91CF911F9152
:101850000F91FF90EF90DF90CF9008951F920F921D
:101860000FB60F9211242F933F934F935F936F9373
:101870007F938F939F93AF93BF93EF93FF93809149
:10188000470190914801A0914901B0914A01892BEB
:101890008A2B8B2B81F18091460181110BC098B16D
:1018A00080E4892788B980914501882319F088B19F
:1018B000805888B98091470190914801A0914901D1
:1018C000B0914A01181619061A061B06B4F4809145
:1018D000470190914801A0914901B0914A010197B7
:1018E000A109B1098093470190934801A093490150
:1018F000B0934A0102C00E94800BFF91EF91BF910B
:10190000AF919F918F917F916F915F914F913F9197
:101910002F910F900FBE0F901F9018959C01E1E73B
:10192000F0E090819D7F908310926301E4EBF5E0FD
:10193000F0936201E0936101F0936001E0935F0135
:10194000318320837383628380E090E8958384836E
:101950000C94800BBC0180E090E00C94770A3E9AD6
:101960003F9A81E0809358010895ECEAF5E090E118
:10197000969FD001A0781124A80F6770E60FF11D83
:101980009491AC59BE4F442319F08C91982B03C00D
:1019900090958C9198239C9308952F923F924F920B
:1019A0005F926F927F928F929F92AF92BF92CF92EF
:1019B000DF92EF92FF920F931F93CF93DF93CDB7F8
:1019C000DEB727970FB6F894DEBF0FBECDBFFC0180
:1019D0006A3069F4248D808D918D38E0239F800DCD
:1019E000911D1124918F808F178A168AA6C06D30A1
:1019F00009F4A3C09F838E83348C238D2983328D79
:101A00003A83608C718CE688F78880E8E816F104E8
:101A1000C4F0AE81BF815C962C915C97422F50E060
:101A200056968D919C915797B6E02B9F800D911DF6
:101A30001124EE81FF81978B868B258D211167C044
:101A40007CC0F0E46F16710424F7C70125E0329ED4
:101A5000800D911D112418161906DCF6432C512C0B
:101A6000C30138E0339E800D911D1124181619060C
:101A700084F685E0689F8001112404551F4F20E003
:101A8000F8012490253009F4212C430158E020FC72
:101A900002C0398101C03A8131110BC0F9818A81BC
:101AA000F81307C026945150840C951C5111EFCFA8
:101AB00025C067018C2D8E198315A0F754018A2D3E
:101AC00088198315B8F490E8C916D10478F4A0E415
:101AD000AA16B10458F4432FB501C6012C833B83E9
:101AE0005D830E94B50C5D813B812C81BFEFAB1AF9
:101AF000BB0AE5CFEFEFCE1ADE0ADCCF2F5FE40C96
:101B0000F51C0F5F1F4F263009F0BACF82CF6AEF66
:101B100064039001659F300D112420583F4F281712
:101B200039075CF4AE81BF81ED91FC911197019072
:101B3000F081E02D6AE0CD01099581E090E02796E3
:101B40000FB6F894DEBF0FBECDBFDF91CF911F91CE
:101B50000F91FF90EF90DF90CF90BF90AF909F904C
:101B60008F907F906F905F904F903F902F9008954F
:101B700080E0E4E6F1E081118FEF0024819381930E
:101B8000819381930394D1F7E4ECF5E0118E108EEC
:101B9000178A168A0895809164018EBDE5E6F1E00A
:101BA00081910DB407FEFDCF8EBD85E0E436F807C8
:101BB000B9F70DB407FEFDCF08952F923F924F92D3
:101BC0005F926F927F928F929F92AF92BF92CF92CD
:101BD000DF92EF92FF920F931F93CF93DF93CDB7D6
:101BE000DEB728970FB6F894DEBF0FBECDBF5A01FF
:101BF000822E912C9C01280D391D37FDC4C08038E0
:101C000091050CF0C0C09B01200F311D37FDBBC0FA
:101C1000603471050CF0B7C0AB0177FF04C04427F6
:101C20005527461B570B477055279B0177FF02C06E
:101C3000295F3F4FE3E035952795EA95E1F777FF78
:101C400008C02150310968E070E0DB01A41BB50B2E
:101C5000AD01602F66956695669570E0077011F08E
:101C60006F5F7F4FDB01A20FB31FBA83A9833901D6
:101C70007694762C662477946794680E791EE12C0E
:101C8000F12C00E010E02301B0E84B0E511C68E09D
:101C900070E0DB01A41BB50BBC83AB8369817A8147
:101CA0002617370709F46FC02830310509F46BC0D7
:101CB0002F3FBFEF3B070CF45BC0B201600F711FF9
:101CC000DB01AC59BE4FBE83AD83D801A60DB71D55
:101CD000AC59BE4F6C0160E070E0681579050CF0FE
:101CE00047C0E0E8CE16D10409F442C0D7FC34C0A6
:101CF0002F3FFFEF3F0709F442C0FB01EE0DFF1D30
:101D0000EA0DFB1DE491042E01C0EE0F0A94EAF7E0
:101D10003C90E329EC9341155105F1F02730310552
:101D2000D9F0FB01EE0DFF1DEA0DFB1DE4912E2EF7
:101D3000312CF1010B8002C0F595E7950A94E2F78A
:101D4000F887EF83ED81FE813080EF81F885E3290C
:101D50001F01ED81FE8120826F5F7F4FED81FE814B
:101D60003196FE83ED83FFEFCF1ADF0A1196B5CFD0
:101D70002F5F3F4F00581F4FE80CF91C8FCF4115C4
:101D8000510579F6E9CF28960FB6F894DEBF0FBE5D
:101D9000CDBFDF91CF911F910F91FF90EF90DF901A
:101DA000CF90BF90AF909F908F907F906F905F90FB
:101DB0004F903F902F9008950F931F93DC01E1E720
:101DC000F0E090819D7F908310926301E4EBF5E059
:101DD000F0936201E0936101F0936001E0935F0191
:101DE000B183A083738362838CE291E095838483C3
:101DF0005783468331872087138702871F910F916E
:101E00000C94800B2FB7F89483E08093E9009091B5
:101E1000E800892F807295FF04C09091F20080E461
:101E2000891B2FBF08950F931F93CF93DF938C01CE
:101E3000C0E0D0E0F801EC0FFD1F6491662371F063
:101E4000E091C405F091C5050190F081E02D84EC8E
:101E500095E00995892B11F02196ECCFCE01DF9109
:101E6000CF911F910F910895EF92FF920F931F93BF
:101E7000CF93DF937C018B01040F111DEB0177FFE2
:101E800010C0C0E0D0E00DC0C217D3078CF480E8CA
:101E9000E816F10428F441E0BE01C7010E94B50C28
:101EA00021969801013411057CF320E430E0ECCF59
:101EB000DF91CF911F910F91FF90EF900895AC01AA
:101EC0004770552721E001C0220F4A95EAF797FD98
:101ED0000796FC0183E0F595E7958A95E1F7F6957D
:101EE000FE2FEE27F795E795E759FE4F8BE08150DF
:101EF00021F09081922B9193FACF08958F929F9227
:101F0000AF92BF920F931F93CF93DF93CDB7DEB7FE
:101F1000A1970FB6F894DEBF0FBECDBF19A2423015
:101F200008F44AE08E010F5D1F4F842E912CA12CE6
:101F3000B12CA50194010E943116E62FB901CA0106
:101F400001501109EA3014F4E05D01C0E95CD801E8
:101F5000EC93232B242B252B61F70115110571F030
:101F6000F80101900020E9F73197AF01401B510BB8
:101F7000B80184EC95E00E94B00602C080E090E0D9
:101F8000A1960FB6F894DEBF0FBECDBFDF91CF9103
:101F90001F910F91BF90AF909F908F9008952091C7
:101FA000CE05282329F49091CD05982381E009F4EA
:101FB00080E008959C01E1E7F0E090819D7F9083AF
:101FC00010926301E4EBF5E0F0936201E0936101AC
:101FD000F0936001E0935F013183208384E690E019
:101FE00093838283758364839783868380E090E8FC
:101FF000918780870C94800BFC0180915E01811198
:1020000003C08FEF9FEF08959FB7F89482E080930D
:10201000E9002091F20030E01216130614F421E0DA
:1020200030E02115310559F0289884E680935D0150
:102030008091F10080838091F200882319F09FBF86
:10204000C90108958BE68093E800F9CF8091580686
:1020500081110DC082E08093540684E08093550680
:10206000109257061092560681E08093580684E538
:1020700096E008950F931F93CF93DF938C0181E037
:1020800090E00E940A1680FF31C08AE090E00E9432
:102090000A169FEF980F9E3F48F522E330E0D801E3
:1020A00057963C932E93569728E330E059963C93ED
:1020B0002E935897CBE0D0E0D801ED91FC910190A0
:1020C000F081E02D682FC8010995CE010E940A1603
:1020D0002196C131D10581F70E94CB0D88EE93E0A6
:1020E000DF91CF911F910F910C94AA0CDF91CF91AA
:1020F0001F910F91089504970C943A10CF93DF939A
:1021000000D000D0CDB7DEB7789484B5826084BDAE
:1021100084B5816084BD85B5826085BD85B58160EB
:1021200085BD80916E00816080936E001092810069
:102130008091810082608093810080918100816024
:1021400080938100809180008160809380008091E5
:1021500091008260809391008091910081608093D2
:102160009100809190008160809390008091C100E7
:1021700084608093C1008091C10082608093C1001F
:102180008091C10081608093C1008091C300816013
:102190008093C3008091C00082608093C0008091D2
:1021A000C20081608093C20080917A008460809335
:1021B0007A0080917A00826080937A0080917A0020
:1021C000816080937A0080917A00806880937A00A1
:1021D00010925E0110925701109256018091D70023
:1021E00081608093D70080EA8093D80089B58061B0
:1021F00089BD89B5826089BD09B400FEFDCF61E06B
:1022000070E080E090E00E94770A8091D8008F7C97
:1022100080618093D8008091E000807F8093E0000F
:102220008091E1008E7E8093E1008DE08093E2005A
:10223000559A209AEEEFFFE7859194918B3F9C4D44
:1022400019F481E0809355018FEF9FEF9093710512
:102250008093700581EC80937C0085B1806F85B997
:10226000249884B1866E84B95E9A5F988AB1806D35
:102270008AB9769A6E9881B3806F81BB899880B352
:102280008D7080BB80E58CBD81E08DBD85E090E0E8
:102290000E94AA0C5F9A85E090E00E94AA0C5E98CA
:1022A0005C98E9E2F6E08DE08E0F94919EBD00000F
:1022B0000DB407FEFDCF31968E13F7CF5C9A81E8FF
:1022C0008093640081E08093650082E090E00E944A
:1022D0000A16882319F00E94AF0C04C0109258010E
:1022E0003E983F980E94AF0C81E090E09093F105FA
:1022F0008093F0059093F3058093F20508EC10E0CD
:102300002AEF30E046E950E066E970E088EC90E0C2
:102310000E94DC0E01E127E646E356E067E170E04B
:102320008CE090E00E94DD0D0E94CB0D6CED75E01D
:1023300080E090E00E94770A0E94B80D92E0492E5A
:10234000512C24E1822E912C83E2282E312C2FB7A0
:10235000F8948091590190915A01A0915B01B0913C
:102360005C012FBF4091D4055091D5056091D605F1
:102370007091D7052091D805222341F02091D005F6
:10238000821B8093D9051092D805BDC0841795078C
:10239000A607B70778F4481B423008F4B4C083B7E7
:1023A000817F83BF83B7816083BF889583B78E7F2A
:1023B00083BFA9C011E01093D8058093D0059093F6
:1023C000D105A093D205B093D3052091CF05820FFC
:1023D000911DA11DB11D8093D4059093D505A093A7
:1023E000D605B093D7058091CB059091CC05019689
:1023F0009093CC058093CB058091CD058093CE053D
:102400004FB12CB193B130E0209530952074332733
:10241000B3E035952795BA95E1F7892F90E080953F
:102420009095807199279595879595958795822B9D
:10243000942F9095907F892B8093CD050E94B80DA5
:102440000091EF05011124C088E00E94CF0F88237E
:1024500041F01093EF056CE271E088EC90E00E948F
:10246000DA0F3092DB052092DA0582E390E0909358
:10247000DD058093DC050AE221E545EE59E060E0E8
:1024800070E087E190E00E94DD0D8AED99E02FC0B9
:10249000013079F580E40E94CF0F882309F455C0FC
:1024A0008091EE05823009F050C035C0843009F5C6
:1024B0008091E405813009F415C2823009F415C217
:1024C0008BE797E00E94130F85E090E09093DB0587
:1024D0008093DA05EDE2F0E0F093DD05E093DC05B2
:1024E0008091E405882309F403C28BE697E00E94FB
:1024F000130F40E054E064E671E084E695E00E944A
:10250000B10A0E94CB0D80E090E0892B09F41FCF27
:102510000E94000019CF8091F0059091F10501967D
:102520009093F1058093F0056BE470E08CE291E00C
:102530000E948E0C8091F0059091F10503974CF16B
:102540001092F1051092F00524C080E20E94CF0F96
:10255000882309F4D0C18091EE05823009F0CBC107
:102560008091F0059091F10501979093F10580938A
:10257000F0056BE470E08CE291E00E948E0C80919B
:10258000F0059091F10597FF04C05092F10540923B
:10259000F00588E00E94CF0F882309F46BC080917A
:1025A000EE05823009F066C08091F2059091F30546
:1025B000E091F005F091F1059C01220F331F820F8D
:1025C000931F8C539A4FE80FF91F81A1811104C208
:1025D0008091E30581A3823009F002E00093E305D6
:1025E000E4EFF5E0E480F580268137816085718530
:1025F00082859385428153818A01000F111F400F0C
:10260000511F4C535A4F00811181400F511FDA0165
:1026100091961C91112309F4B7C1A901440F551FCC
:10262000240F351F2C533A4FD701A20FB31F919699
:102630002C912113A9C1AC01440F551F840F951F84
:102640008C539A4FDC01A60FB71F9196FC90F212A3
:102650009BC104E610E020E931E044E650E064E686
:1026600070E088EC90E00E94DC0E84E08093EE0540
:10267000F092E40584E00E94CF0F8823B1F18091AD
:10268000EE05823009F4B6C1833009F4BBC1843051
:1026900061F51092E5051092E6051092E70510929B
:1026A000E8051092E9051092EA051092EB051092E8
:1026B000EC051092ED051092EF0582E08093EE0597
:1026C00081E08093E3051092E40581E090E090932F
:1026D000F1058093F0059093F3058093F20564E68D
:1026E00070E084EF91E00E948E0C0DE32DE342EF49
:1026F00057E061E070E080E490E00E94DD0D64EC62
:10270000662E65E0762E74E0C72ED12CA12CB12C5C
:102710009601225031093A83298353E4E52EF12CA6
:102720001C821B82EB81FC81E60DF71D81A18230AA
:1027300029F40DE02DE048ED57E006C0813041F46A
:102740000DE02DE04EEB57E0B601C7010E94DD0D14
:102750008091F0059091F105EB81FC81E817F90774
:1027600089F48091F2059091F305A816B90651F409
:1027700001E121E14BE857E069817A81C7010297C5
:102780000E94DD0D2B813C812F5F3F4F3C832B83CB
:1027900035E1E30EF11C8B819C81039719F69FEFC5
:1027A000A91AB90AA5E1CA0ED11CB3E06B0E711CBF
:1027B000E3E0AE16B10409F0ABCF9092DB05809256
:1027C000DA0584E090E09093DD058093DC0589E8EC
:1027D00097E00E94130F4AE061E070E080E090E033
:1027E0000E947E0F82E090E00E945F0F8BE090E0FD
:1027F0000E945F0F4AE062E070E085E090E00E9496
:10280000340F4AE062E070E08EE090E00E94340F06
:102810008091E305813081F19092DB058092DA05A9
:10282000A3E1B0E0B093DD05A093DC0589E897E073
:102830000E94130F4AE062E070E080E090E00E94A6
:102840007E0F81E190E00E945F0F8AE190E00E949C
:102850005F0F4AE061E170E085E090E00E94340F94
:102860004AE061E170E08EE090E00E94340F8091D8
:10287000E3058230E1F40EC007E010E046E064E0DA
:1028800070E0C8010E94340F0F5F1F4F0D3011051B
:10289000A9F7C2CF07E010E046E063E170E0C801AD
:1028A0000E94340F0F5F1F4F0D301105A9F785E00F
:1028B00090E09093DB058093DA053092DD0520925D
:1028C000DC058091EE05823009F413CE833009F0E7
:1028D000EDCD47E050E069E371E084EC95E00E94C3
:1028E000B00607CE83E797E0EDCD81E897E0EACD2B
:1028F00081E797E0FCCD80E80E94CF0F8823F1F0BC
:102900008091EE058230D1F48091F2059091F3052B
:1029100001979093F3058093F2056BE470E08CE2ED
:1029200091E00E948E0C8091F2059091F30597FF43
:1029300030CE5092F3054092F2052BCE80E10E94FA
:10294000CF0F882309F425CE8091EE05823009F05F
:1029500020CE8091F2059091F30501969093F305B6
:102960008093F2056BE470E08CE291E00E948E0CA3
:102970008091F2059091F30503970CF40ACE109222
:10298000F3051092F20505CE3C96B6E0E435FB0760
:1029900009F028CE80E090E0FC01EC53FA4F21A131
:1029A000222309F122A12223F1F023A12223D9F02D
:1029B00003968930910581F704E610E028EC30E0B9
:1029C00044E650E064E670E080E991E00E94DC0EAD
:1029D00084E08093EE054ECE64E670E084E690E0FD
:1029E0000E948E0C47CE66E970E088EC90E00E9471
:1029F000DA0F40CE64EF71E080E991E00E94DA0FD7
:102A000083E007C060E971E084EF91E00E94DA0F93
:102A100082E08093EE0569CEE4E6F5E0138212824F
:102A200088EE93E0A0E0B0E084839583A683B7832B
:102A300087E191E0918380838FEF9FEF9587848773
:102A4000E4ECF5E0138212821186128620E12387DE
:102A500090878783108A118A128A138A148A89E2DE
:102A600091E09183808387E391E095838483178A43
:102A7000168A118E108E81E0828F138E848F158EB0
:102A800025E537E03093C3052093C20520E030E808
:102A90003093C1052093C00546983E9A47983F9AC7
:102AA000878F82E082A711AA10AA13AA12AA15AAD8
:102AB00014AA21E030E037AB26AB11AE10AE82E0B5
:102AC00090E093AF82AF35AF24AF1092030610921F
:102AD00002063093050620930406309307062093E0
:102AE0000606309309062093080690930B06809300
:102AF0000A0690930D0680930C0610920F06109212
:102B00000E069093110680931006309313062093BF
:102B100012069093150680931406909317068093DF
:102B20001606109219061092180610921B061092A3
:102B30001A0630931D0620931C0610921F06109251
:102B40001E06909321068093200610922306109271
:102B50002206109225061092240630932706209311
:102B60002606309329062093280630932B062093BF
:102B70002A0690932D0680932C0630932F062093DF
:102B80002E061092310610923006909333068093F1
:102B9000320630933506209334069093370680939F
:102BA0003606909339068093380690933B068093BF
:102BB0003A0610923D0610923C0610923F06109283
:102BC0003E063093410620934006309343062093FF
:102BD000420690934506809344069093470680935F
:102BE0004606109249061092480690934B06809331
:102BF0004A0630934D0620934C0630934F0620939F
:102C00004E069093510680935006109253061092F0
:102C100052060895F999FECF92BD81BDF89A992781
:102C200080B50895052E97FB1EF400940E94291686
:102C300057FD07D00E94311607FC03D04EF40C94C8
:102C4000291650954095309521953F4F4F4F5F4F36
:102C5000089590958095709561957F4F8F4F9F4F08
:102C60000895A1E21A2EAA1BBB1BFD010DC0AA1FCD
:102C7000BB1FEE1FFF1FA217B307E407F50720F0E5
:102C8000A21BB30BE40BF50B661F771F881F991F60
:102C90001A9469F760957095809590959B01AC01A9
:102CA000BD01CF010895A29FB001B39FC001A39FB2
:102CB000700D811D1124911DB29F700D811D112475
:102CC000911D0895EE0FFF1F0590F491E02D0994DA
:042CD000F894FFCFA6
:102CD400FFFFFFFF00E100000000000000C1808151
:102CE40000000000000000DB06B10A8F07F106FCBB
:102CF400069307B10700000000CD0CB0065A07592F
:102D0400073A10FCFF00007B105061757365642E58
:022D14000000BD
:00000001FF
